{
    "abi": [
        {
            "type": "function",
            "name": "getFactoryPair",
            "inputs": [
                {
                    "name": "indexFrom",
                    "type": "uint256",
                    "internalType": "uint256"
                },
                {
                    "name": "indexOffset",
                    "type": "uint256",
                    "internalType": "uint256"
                },
                {
                    "name": "uniV2factoryAddress",
                    "type": "address",
                    "internalType": "address"
                }
            ],
            "outputs": [
                {
                    "name": "",
                    "type": "tuple[]",
                    "internalType": "struct FactoryPair[]",
                    "components": [
                        {
                            "name": "pairIndex",
                            "type": "uint256",
                            "internalType": "uint256"
                        },
                        {
                            "name": "pairAddress",
                            "type": "address",
                            "internalType": "address"
                        }
                    ]
                }
            ],
            "stateMutability": "view"
        }
    ],
    "bytecode": {
        "object": "0x6080604052348015600e575f5ffd5b5061063d8061001c5f395ff3fe608060405234801561000f575f5ffd5b5060043610610029575f3560e01c8063149024e21461002d575b5f5ffd5b61004760048036038101906100429190610311565b61005d565b6040516100549190610454565b60405180910390f35b60605f8273ffffffffffffffffffffffffffffffffffffffff1663574f2ba36040518163ffffffff1660e01b8152600401602060405180830381865afa1580156100a9573d5f5f3e3d5ffd5b505050506040513d601f19601f820116820180604052508101906100cd9190610488565b90508085106100df5760605f60208201f35b8084866100ec91906104e0565b116100f75783610104565b84816101039190610513565b5b93505f8467ffffffffffffffff81111561012157610120610546565b5b60405190808252806020026020018201604052801561015a57816020015b610147610252565b81526020019060019003908161013f5790505b5090505f5f90505b85811015610245575f818861017791906104e0565b905060405180604001604052808281526020018773ffffffffffffffffffffffffffffffffffffffff16631e3dd18b846040518263ffffffff1660e01b81526004016101c39190610582565b602060405180830381865afa1580156101de573d5f5f3e3d5ffd5b505050506040513d601f19601f8201168201806040525081019061020291906105af565b73ffffffffffffffffffffffffffffffffffffffff1681525083838151811061022e5761022d6105da565b5b602002602001018190525050806001019050610162565b5080925050509392505050565b60405180604001604052805f81526020015f73ffffffffffffffffffffffffffffffffffffffff1681525090565b5f5ffd5b5f819050919050565b61029681610284565b81146102a0575f5ffd5b50565b5f813590506102b18161028d565b92915050565b5f73ffffffffffffffffffffffffffffffffffffffff82169050919050565b5f6102e0826102b7565b9050919050565b6102f0816102d6565b81146102fa575f5ffd5b50565b5f8135905061030b816102e7565b92915050565b5f5f5f6060848603121561032857610327610280565b5b5f610335868287016102a3565b9350506020610346868287016102a3565b9250506040610357868287016102fd565b9150509250925092565b5f81519050919050565b5f82825260208201905092915050565b5f819050602082019050919050565b61039381610284565b82525050565b6103a2816102d6565b82525050565b604082015f8201516103bc5f85018261038a565b5060208201516103cf6020850182610399565b50505050565b5f6103e083836103a8565b60408301905092915050565b5f602082019050919050565b5f61040282610361565b61040c818561036b565b93506104178361037b565b805f5b8381101561044757815161042e88826103d5565b9750610439836103ec565b92505060018101905061041a565b5085935050505092915050565b5f6020820190508181035f83015261046c81846103f8565b905092915050565b5f815190506104828161028d565b92915050565b5f6020828403121561049d5761049c610280565b5b5f6104aa84828501610474565b91505092915050565b7f4e487b71000000000000000000000000000000000000000000000000000000005f52601160045260245ffd5b5f6104ea82610284565b91506104f583610284565b925082820190508082111561050d5761050c6104b3565b5b92915050565b5f61051d82610284565b915061052883610284565b92508282039050818111156105405761053f6104b3565b5b92915050565b7f4e487b71000000000000000000000000000000000000000000000000000000005f52604160045260245ffd5b61057c81610284565b82525050565b5f6020820190506105955f830184610573565b92915050565b5f815190506105a9816102e7565b92915050565b5f602082840312156105c4576105c3610280565b5b5f6105d18482850161059b565b91505092915050565b7f4e487b71000000000000000000000000000000000000000000000000000000005f52603260045260245ffdfea264697066735822122019644613406a668454ad98a78b074e930bb249b2f68dbcb5d1c055471d11604a64736f6c634300081e0033",
        "linkReferences": {}
    },
    "methodIdentifiers": {
        "getFactoryPair(uint256,uint256,address)": "149024e2"
    },
    "id": 4
}